:020000040800F2
:1000000000000120BD090008210900082709000897
:100010002D09000833090008390900080000000014
:100020000000000000000000000000003F09000880
:100030004D090008000000005B090008690900087C
:100040000D0A00080D0A00080D0A00080D0A000834
:100050000D0A00080D0A00080D0A00080D0A000824
:100060000D0A00080D0A00080D0A00080D0A000814
:100070000D0A00080D0A00080D0A00080D0A000804
:100080000D0A00080D0A00080D0A00080000000013
:100090000000000000000000000000000D0A000841
:1000A0000D0A0008750900080D0A00080D0A00086D
:1000B0000D0A00080D0A00080D0A00080D0A0008C4
:1000C0000D0A00080D0A00080D0A00080D0A0008B4
:1000D0000D0A00080D0A00080D0A000800000000C3
:1000E000890900080D0A00080D0A00080000000038
:1000F0000000000000000000000000000D0A0008E1
:10010000000000000D0A00080D0A00080D0A000892
:1001100000000000000000000000000000000000DF
:100120000D0A00080D0A00080D0A00080D0A000853
:100130000D0A0008000000000000000000000000A0
:100140000000000000000000000000000D0A000890
:100150000D0A00080D0A00080D0A00080D0A000823
:100160000D0A00080D0A0008000000000000000051
:10017000000000000000000000000000000000007F
:10018000000000000D0A0008000000000000000050
:040190000D0A00084C
:1001940010B5054C237833B9044B13B10448AFF3BD
:1001A40000800123237010BD1C000020000000000B
:1001B4006023000808B5034B1BB103490348AFF3A0
:1001C400008008BD0000000020000020602300081B
:1001D40053B94AB9002908BF00281CBF4FF0FF31AA
:1001E4004FF0FF3000F074B9ADF1080C6DE904CEA6
:1001F40000F006F8DDF804E0DDE9022304B07047FE
:100204002DE9F047089D04468E46002B4DD18A42C5
:10021400944669D9B2FA82F252B101FA02F3C2F1F8
:10022400200120FA01F10CFA02FC41EA030E944089
:100234004FEA1C48210CBEFBF8F61FFA8CF708FBAA
:1002440016E341EA034306FB07F199420AD91CEB82
:10025400030306F1FF3080F01F81994240F21C81B4
:10026400023E63445B1AA4B2B3FBF8F008FB1033FC
:1002740044EA034400FB07F7A7420AD91CEB040431
:1002840000F1FF3380F00A81A74240F20781644401
:10029400023840EA0640E41B00261DB1D440002386
:1002A400C5E900433146BDE8F0878B4209D9002DEA
:1002B40000F0EF800026C5E9000130463146BDE874
:1002C400F087B3FA83F6002E4AD18B4202D38242DE
:1002D40000F2F980841A61EB030301209E46002D8D
:1002E400E0D0C5E9004EDDE702B9FFDEB2FA82F2E2
:1002F400002A40F09280A1EB0C014FEA1C471FFA40
:100304008CFE0126200CB1FBF7F307FB131140EA26
:1003140001410EFB03F0884208D91CEB010103F1F3
:10032400FF3802D2884200F2CB804346091AA4B2B5
:10033400B1FBF7F007FB101144EA01440EFB00FE89
:10034400A64508D91CEB040400F1FF3102D2A645EE
:1003540000F2BB800846A4EB0E0440EA03409CE78D
:10036400C6F12007B34022FA07FC4CEA030C20FA3A
:1003740007F401FA06F31C43F9404FEA1C4900FA5A
:1003840006F3B1FBF9F8200C1FFA8CFE09FB1811D7
:1003940040EA014108FB0EF0884202FA06F20BD94A
:1003A4001CEB010108F1FF3A80F08880884240F29A
:1003B4008580A8F102086144091AA4B2B1FBF9F0DE
:1003C40009FB101144EA014100FB0EFE8E4508D9D9
:1003D4001CEB010100F1FF346CD28E456AD902385E
:1003E400614440EA0840A0FB0294A1EB0E01A14243
:1003F400C846A64656D353D05DB1B3EB080261EBB1
:100404000E0101FA07F722FA06F3F1401F43C5E98A
:10041400007100263146BDE8F087C2F12003D840C0
:100424000CFA02FC21FA03F3914001434FEA1C4702
:100434001FFA8CFEB3FBF7F007FB10360B0C43EAF4
:10044400064300FB0EF69E4204FA02F408D91CEBA4
:10045400030300F1FF382FD29E422DD902386344A2
:100464009B1B89B2B3FBF7F607FB163341EA034142
:1004740006FB0EF38B4208D91CEB010106F1FF3891
:1004840016D28B4214D9023E6144C91A46EA004688
:1004940038E72E46284605E70646E3E61846F8E61A
:1004A4004B45A9D2B9EB020864EB0C0E0138A3E763
:1004B4004646EAE7204694E74046D1E7D0467BE744
:1004C400023B614432E7304609E76444023842E7BC
:1004D400704700BF80B500AF00F098FA00F018F83C
:1004E40000F0E6F800F092F800F07CF8064801F01D
:1004F40013FB4FF48051054800F0E5FD4FF4FA700A
:1005040000F0F6FAF5E700BF3800002000040240CE
:1005140080B594B000AF07F12003302200211846C3
:1005240001F014FF07F10C0300221A605A609A606C
:10053400DA601A610023BB60284B1B6C274A43F026
:1005440080531364254B1B6C03F08053BB60BB6862
:1005540000237B60224B1B6823F44043204A43F46E
:10056400004313601E4B1B6803F440437B607B68AD
:1005740001233B624FF480337B620223BB634FF45D
:100584008003FB6319233B6480237B640223BB64E5
:100594000423FB6407F12003184600F0C7FD03465B
:1005A400002B01D000F06AF90F23FB6002233B61AA
:1005B40090237B614FF48053BB610023FB6107F1FF
:1005C4000C030021184601F029F80346002B01D042
:1005D40000F054F900BF5037BD4680BD00380240DA
:1005E4000070004080B500AF00220021192000F007
:1005F4007EFB192000F097FB00220021282000F048
:1006040076FB282000F08FFB00BF80BD80B586B04C
:1006140000AF07F1080300221A605A609A60DA609A
:100624003B4600221A605A601F4B204A1A601E4B38
:1006340040F2CF225A601C4B00229A601A4B42F2BD
:100644000F72DA60184B00221A61174B00225A61AC
:10065400154B00229A61144801F08CF90346002BD3
:1006640001D000F00BF94FF48053BB6007F108038D
:1006740019460D4801F0BAFB0346002B01D000F0E7
:10068400FDF800233B6000237B603B461946064887
:1006940001F0B6FD0346002B01D000F0EFF800BFD7
:1006A4001837BD4680BD00BF38000020000001405F
:1006B40080B58AB000AF07F1140300221A605A60B3
:1006C4009A60DA601A6100233B61394B1B6B384A2C
:1006D40043F004031363364B1B6B03F004033B61C9
:1006E4003B690023FB60324B1B6B314A43F08003B0
:1006F40013632F4B1B6B03F08003FB60FB68002329
:10070400BB602B4B1B6B2A4A43F002031363284B39
:100714001B6B03F00203BB60BB6800237B60244BAC
:100724001B6B234A43F001031363214B1B6B03F040
:1007340001037B607B6800224FF480511D4800F068
:10074400A9FC00224FF470611B4800F0A3FC4FF495
:1007540080537B610123BB610023FB6100233B6267
:1007640007F114031946134800F0F8FA4FF4005344
:100774007B614FF48813BB610223FB6107F114030F
:1007840019460C4800F0EAFA4FF470637B610123C8
:10079400BB610023FB6100233B6207F1140319468C
:1007A400054800F0DBFA00BF2837BD4680BD00BF16
:1007B40000380240000402400000024080B584B0CA
:1007C40000AF78607B681B681C4A934231D14FF4B8
:1007D40000511B4800F046FC0346002B29D100239E
:1007E400FB600CE0174AFB6852F823309BB20022EE
:1007F4001946154800F04EFCFB680133FB60FB68AA
:10080400032BEFDD114B1B680E4A52F823309BB2C9
:10081400012219460C4800F03DFC0C4B1B680133C7
:100824000A4A1360094B1B68032B02DD074B0022A5
:100834001A6000BF1037BD4680BD00BF00000140F4
:10084400000402400000002000000240800000205C
:1008540080B582B000AF0346FB80FB88B3F5005F30
:1008640002D1054801F030F9034801F0D3F800BF84
:100874000837BD4680BD00BF3800002080B400AFFB
:1008840072B600BFFEE7000080B483B000AF00235F
:100894007B60104B5B6C0F4A43F4804353640D4BF5
:1008A4005B6C03F480437B607B6800233B60094BF3
:1008B4001B6C084A43F080531364064B1B6C03F013
:1008C40080533B603B6800BF0C37BD465DF8047B3A
:1008D400704700BF0038024080B485B000AF786034
:1008E4007B681B680B4A93420DD10023FB600A4BC3
:1008F4005B6C094A43F001035364074B5B6C03F0E0
:100904000103FB60FB6800BF1437BD465DF8047B40
:10091400704700BF000001400038024080B400AFBF
:10092400FEE780B400AFFEE780B400AFFEE780B41A
:1009340000AFFEE780B400AFFEE780B400AF00BFB5
:10094400BD465DF8047B704780B400AF00BFBD4670
:100954005DF8047B704780B400AF00BFBD465DF80E
:10096400047B704780B500AF00F0A2F800BF80BDE3
:1009740080B500AF024801F031F900BF80BD00BF6F
:100984003800002080B500AF4FF4005000F0B6FBF3
:1009940000BF80BD80B400AF064BD3F88830054A51
:1009A40043F47003C2F8883000BFBD465DF8047B91
:1009B400704700BF00ED00E0DFF834D00D480E4969
:1009C4000E4A002302E0D458C4500433C4188C42A5
:1009D400F9D30B4A0B4C002301E013600432A2420A
:1009E400FBD3FFF7D7FF01F08DFCFFF773FD7047D2
:1009F40000000120000000201C00002098230008B3
:100A04001C00002088000020FEE7000080B500AF35
:100A14000E4B1B680D4A43F4007313600B4B1B68A9
:100A24000A4A43F480631360084B1B68074A43F483
:100A340080731360032000F04FF90F2000F008F8D2
:100A4400FFF722FF0023184680BD00BF003C024090
:100A540080B582B000AF7860124B1A68124B1B78D5
:100A640019464FF47A73B3FBF1F3B2FBF3F3184670
:100A740000F067F90346002B01D001230EE07B68E8
:100A84000F2B0AD8002279684FF0FF3000F02FF9BD
:100A9400064A7B681360002300E0012318460837E8
:100AA400BD4680BD10000020180000201400002066
:100AB40080B400AF064B1B781A46064B1B681344E0
:100AC400044A136000BFBD465DF8047B704700BF55
:100AD400180000208400002080B400AF034B1B6882
:100AE4001846BD465DF8047B704700BF84000020B3
:100AF40080B584B000AF7860FFF7EEFFB8607B6824
:100B0400FB60FB68B3F1FF3F05D00A4B1B781A4624
:100B1400FB681344FB6000BFFFF7DEFF0246BB68BF
:100B2400D31AFA689A42F7D800BF00BF1037BD46FF
:100B340080BD00BF1800002080B485B000AF78608D
:100B44007B6803F00703FB600C4BDB68BB60BA688F
:100B54004FF6FF031340BB60FB681A02BB681343E4
:100B640043F0BF6343F40033BB60044ABB68D36003
:100B740000BF1437BD465DF8047B704700ED00E00C
:100B840080B400AF044BDB681B0A03F0070318466C
:100B9400BD465DF8047B704700ED00E080B483B08F
:100BA40000AF0346FB7197F90730002B0BDBFB7991
:100BB40003F01F02074997F907305B09012000FA87
:100BC40002F241F8232000BF0C37BD465DF8047BD8
:100BD400704700BF00E100E080B483B000AF03467B
:100BE4003960FB7197F90730002B0ADB3B68DAB2F6
:100BF4000C4997F907301201D2B20B4483F8002351
:100C04000AE03B68DAB20849FB7903F00F03043BBE
:100C14001201D2B20B441A7600BF0C37BD465DF800
:100C2400047B704700E100E000ED00E080B489B08F
:100C340000AFF860B9607A60FB6803F00703FB61FA
:100C4400FB69C3F10703042B28BF0423BB61FB69C1
:100C54000433062B02D9FB69033B00E000237B61CC
:100C64004FF0FF32BB6902FA03F3DA43BB681A4060
:100C74007B699A404FF0FF317B6901FA03F3D94352
:100C84007B680B40134318462437BD465DF8047B4C
:100C94007047000080B582B000AF78607B68013B8C
:100CA400B3F1807F01D301230FE00A4A7B68013B43
:100CB40053600F214FF0FF30FFF78EFF054B0022EA
:100CC4009A60044B07221A60002318460837BD4671
:100CD40080BD00BF10E000E080B582B000AF786056
:100CE4007868FFF729FF00BF0837BD4680BD80B58F
:100CF40086B000AF0346B9607A60FB7300237B6162
:100D0400FFF73EFF78617A68B9687869FFF78EFF6C
:100D1400024697F90F3011461846FFF75DFF00BFF2
:100D24001837BD4680BD80B582B000AF0346FB7165
:100D340097F907301846FFF731FF00BF0837BD4663
:100D440080BD80B582B000AF78607868FFF7A2FFFD
:100D5400034618460837BD4680BD000080B489B0FC
:100D640000AF7860396000237B6100233B6100237E
:100D7400BB610023FB6159E10122FB6902FA03F321
:100D84007B613B681B687A6913403B613A697B6904
:100D94009A4240F048813B685B6803F00303012BEF
:100DA40005D03B685B6803F00303022B30D17B68FA
:100DB4009B68BB61FB695B00032202FA03F3DB431C
:100DC400BA691340BB613B68DA68FB695B0002FAED
:100DD40003F3BA691343BB617B68BA699A607B68A1
:100DE4005B68BB610122FB6902FA03F3DB43BA6966
:100DF4001340BB613B685B681B0903F00102FB699C
:100E040002FA03F3BA691343BB617B68BA695A6097
:100E14003B685B6803F00303032B17D07B68DB6834
:100E2400BB61FB695B00032202FA03F3DB43BA698B
:100E34001340BB613B689A68FB695B0002FA03F3E9
:100E4400BA691343BB617B68BA69DA603B685B6863
:100E540003F00303022B23D1FB69DA087B68083211
:100E640053F82230BB61FB6903F007039B000F2298
:100E740002FA03F3DB43BA691340BB613B681A69A6
:100E8400FB6903F007039B0002FA03F3BA691343F7
:100E9400BB61FB69DA087B680832B96943F8221040
:100EA4007B681B68BB61FB695B00032202FA03F3E6
:100EB400DB43BA691340BB613B685B6803F0030220
:100EC400FB695B0002FA03F3BA691343BB617B68F5
:100ED400BA691A603B685B6803F44033002B00F086
:100EE400A2800023FB60574B5B6C564A43F480435B
:100EF4005364544B5B6C03F48043FB60FB68524ABD
:100F0400FB699B08023352F82330BB61FB6903F091
:100F140003039B000F2202FA03F3DB43BA69134075
:100F2400BB617B68494A934219D07B68484A934223
:100F340013D07B68474A93420DD07B68464A93425C
:100F440007D07B68454A934201D1042308E0072374
:100F540006E0032304E0022302E0012300E000236F
:100F6400FA6902F0030292009340BA691343BB6129
:100F74003549FB699B080233BA6941F82320384B91
:100F84009B68BB613B69DB43BA691340BB613B6847
:100F94005B6803F48013002B03D0BA693B691343E5
:100FA400BB612F4ABB6993602D4BDB68BB613B6916
:100FB400DB43BA691340BB613B685B6803F400130D
:100FC400002B03D0BA693B691343BB61244ABB6954
:100FD400D360234B5B68BB613B69DB43BA69134055
:100FE400BB613B685B6803F40033002B03D0BA6930
:100FF4003B691343BB611A4ABB695360184B1B68B6
:10100400BB613B69DB43BA691340BB613B685B6806
:1010140003F48033002B03D0BA693B691343BB61EB
:101024000F4ABB691360FB690133FB61FB690F2B3A
:101034007FF6A2AE00BF00BF2437BD465DF8047B37
:10104400704700BF003802400038014000000240F1
:101054000004024000080240000C0240001002405C
:10106400003C014080B485B000AF78600B467B80C3
:101074007B681A697B881340002B02D00123FB7321
:1010840001E00023FB73FB7B18461437BD465DF873
:10109400047B704780B483B000AF78600B467B80DC
:1010A40013467B707B78002B03D07A887B689A6127
:1010B40003E07B881A047B689A6100BF0C37BD4645
:1010C4005DF8047B704780B485B000AF78600B4650
:1010D4007B807B685B69FB607A88FB6813401A0439
:1010E400FB68D9437B880B401A437B689A6100BF35
:1010F4001437BD465DF8047B7047000080B582B0AC
:1011040000AF0346FB80084B5A69FB881340002B51
:1011140006D0054AFB885361FB881846FFF798FB05
:1011240000BF0837BD4680BD003C014080B586B095
:1011340000AF78607B68002B01D1012367E27B68F4
:101144001B6803F00103002B75D0884B9B6803F0E8
:101154000C03042B0CD0854B9B6803F00C03082B69
:1011640012D1824B5B6803F48003B3F5800F0BD17B
:101174007E4B1B6803F40033002B5BD07B685B68F9
:10118400002B57D1012342E27B685B68B3F5803FB3
:1011940006D1764B1B68754A43F4803313601DE017
:1011A4007B685B68B3F5A02F0CD1704B1B686F4A4A
:1011B40043F4802313606D4B1B686C4A43F4803303
:1011C40013600BE0694B1B68684A23F48033136097
:1011D400664B1B68654A23F4802313607B685B6855
:1011E400002B13D0FFF778FC386108E0FFF774FC9C
:1011F40002463B69D31A642B01D9032307E25B4BF4
:101204001B6803F40033002BF0D014E0FFF764FCF8
:10121400386108E0FFF760FC02463B69D31A642B8F
:1012240001D90323F3E1514B1B6803F40033002B72
:10123400F0D100E000BF7B681B6803F00203002BC1
:1012440063D04A4B9B6803F00C03002B0BD0474B35
:101254009B6803F00C03082B1CD1444B5B6803F41C
:101264008003002B16D1414B1B6803F00203002BB3
:1012740005D07B68DB68012B01D00123C7E13B4B20
:101284001B6823F0F8027B681B69DB0037491343B2
:101294000B603AE07B68DB68002B20D0344B0122E2
:1012A4001A60FFF719FC386108E0FFF715FC0246E5
:1012B4003B69D31A022B01D90323A8E12B4B1B68EA
:1012C40003F00203002BF0D0284B1B6823F0F80234
:1012D4007B681B69DB00254913430B6015E0244B35
:1012E40000221A60FFF7F8FB386108E0FFF7F4FB0F
:1012F40002463B69D31A022B01D9032387E11B4B16
:101304001B6803F00203002BF0D17B681B6803F019
:101314000803002B36D07B685B69002B16D0154B75
:1013240001221A60FFF7D8FB386108E0FFF7D4FB0D
:1013340002463B69D31A022B01D9032367E10B4B05
:101344005B6F03F00203002BF0D01BE0094B00227B
:101354001A60FFF7C1FB38610EE0FFF7BDFB0246E0
:101364003B69D31A022B07D9032350E1003802400A
:1013740000004742800E4742884B5B6F03F0020334
:10138400002BEAD17B681B6803F00403002B00F0F8
:1013940097800023FB75814B1B6C03F08053002B5B
:1013A4000FD10023BB607D4B1B6C7C4A43F0805300
:1013B40013647A4B1B6C03F08053BB60BB6801233E
:1013C400FB75774B1B6803F48073002B18D1744BA7
:1013D4001B68734A43F480731360FFF77DFB386125
:1013E40008E0FFF779FB02463B69D31A022B01D9C7
:1013F40003230CE16A4B1B6803F48073002BF0D0C9
:101404007B689B68012B06D1644B1B6F634A43F0D6
:10141400010313671CE07B689B68052B0CD15F4BB1
:101424001B6F5E4A43F0040313675C4B1B6F5B4AFC
:1014340043F0010313670BE0584B1B6F574A23F02B
:1014440001031367554B1B6F544A23F004031367BE
:101454007B689B68002B15D0FFF73EFB38610AE0E0
:10146400FFF73AFB02463B69D31A41F288329342B2
:1014740001D90323CBE0494B1B6F03F00203002B7C
:10148400EED014E0FFF728FB38610AE0FFF724FBF5
:1014940002463B69D31A41F28832934201D90323AD
:1014A400B5E03E4B1B6F03F00203002BEED1FB7D36
:1014B400012B05D1394B1B6C384A23F0805313643C
:1014C4007B689B69002B00F0A180344B9B6803F080
:1014D4000C03082B5CD07B689B69022B41D1314BF8
:1014E40000221A60FFF7F8FA386108E0FFF7F4FA0F
:1014F40002463B69D31A022B01D9032387E0274B09
:101504001B6803F00073002BF0D17B68DA697B68F9
:101514001B6A1A437B685B6A9B011A437B689B6A5C
:101524005B08013B1B041A437B68DB6A1B061B49EF
:1015340013434B601B4B01221A60FFF7CDFA38614D
:1015440008E0FFF7C9FA02463B69D31A022B01D916
:1015540003235CE0114B1B6803F00073002BF0D0F5
:1015640054E0104B00221A60FFF7B6FA386108E025
:10157400FFF7B2FA02463B69D31A022B01D90323BF
:1015840045E0064B1B6803F00073002BF0D13DE0EF
:101594007B689B69012B07D1012338E000380240A6
:1015A40000700040600047421B4B5B68FB607B6837
:1015B4009B69012B28D0FB6803F480027B68DB69FC
:1015C4009A4221D1FB6803F03F027B681B6A9A426E
:1015D4001AD1FA6847F6C07313407A68526A9201C6
:1015E400934211D1FB6803F440327B689B6A5B0829
:1015F400013B1B049A4207D1FB6803F070627B68CD
:10160400DB6A1B069A4201D0012300E0002318463E
:101614001837BD4680BD00BF0038024080B584B095
:1016240000AF786039607B68002B01D10123CCE0E6
:10163400684B1B6803F007033A689A420CD9654B60
:101644003A68D2B21A70634B1B6803F007033A6816
:101654009A4201D00123B8E07B681B6803F00203BF
:10166400002B20D07B681B6803F00403002B05D0FB
:10167400594B9B68584A43F4E05393607B681B685A
:1016840003F00803002B05D0534B9B68524A43F4E4
:1016940060439360504B9B6823F0F0027B689B6827
:1016A4004D4913438B607B681B6803F00103002BD7
:1016B40044D07B685B68012B07D1474B1B6803F45C
:1016C4000033002B19D101237FE07B685B68022B78
:1016D40003D07B685B68032B07D13F4B1B6803F087
:1016E4000073002B09D101236FE03B4B1B6803F00F
:1016F4000203002B01D1012367E0374B9B6823F0E1
:1017040003027B685B68344913438B60FFF7E4F999
:10171400F8600AE0FFF7E0F90246FB68D31A41F2E9
:101724008832934201D903234FE02B4B9B6803F08B
:101734000C027B685B689B009A42EBD1254B1B68CB
:1017440003F007033A689A420CD2224B3A68D2B2A9
:101754001A70204B1B6803F007033A689A4201D0C1
:10176400012332E07B681B6803F00403002B08D0DC
:10177400194B9B6823F4E0527B68DB6816491343DA
:101784008B607B681B6803F00803002B09D0124BA5
:101794009B6823F460427B681B69DB000E4913439A
:1017A4008B6000F021F802460B4B9B681B0903F089
:1017B4000F030A49CB5C22FA03F3094A1360094B6D
:1017C4001B681846FFF744F9002318461037BD4636
:1017D40080BD00BF003C024000380240782300086E
:1017E40010000020140000202DE9B04F90B000AF8D
:1017F40000237B630023FB6300233B630023BB6361
:10180400594B9B6803F00C03082B0DD0082B00F2F6
:10181400A180002B02D0042B03D09BE0534BBB636D
:101824009BE0534BBB6398E04F4B5B6803F03F0373
:101834007B634D4B5B6803F48003002B28D04A4B39
:101844005B689B0900223B627A623B6AC3F308002F
:101854000021474B03FB01F2002300FB03F3134475
:10186400434AA0FB0212FA620A46BA62FA6A1344B5
:10187400FB627B6B0022BB61FA61D7E90623D7E9DF
:101884000A01FEF7A5FC02460B461346FB6353E030
:10189400354B5B689B0900223B617A613B69C3F36A
:1018A400080A4FF0000B52465B464FF000004FF021
:1018B4000001590141EAD261500102460B46B2EBE4
:1018C4000A0863EB0B094FF000024FF000034FEAE4
:1018D400891343EA98634FEA8812B2EB080463EB76
:1018E40009054FF000024FF00003EB0043EA547384
:1018F400E20014461D4614EB0A033B6045EB0B0360
:101904007B604FF000024FF00003D7E90045294601
:101914008B02214643EA915321468A021046194616
:101924007B6B0022BB60FA60D7E90223FEF750FC10
:1019340002460B461346FB630B4B5B681B0C03F020
:10194400030301335B003B63FA6B3B6BB2FBF3F3C2
:10195400BB6302E0054BBB6300BFBB6B184640375B
:10196400BD46BDE8B08F00BF003802400024F4003B
:1019740040787D0180B582B000AF78607B68002B31
:1019840001D1012341E07B6893F83D30DBB2002BA9
:1019940006D17B68002283F83C207868FEF79CFF20
:1019A4007B68022283F83D207B681A687B680433D5
:1019B4001946104600F00AFB7B68012283F8462092
:1019C4007B68012283F83E207B68012283F83F2054
:1019D4007B68012283F840207B68012283F8412040
:1019E4007B68012283F842207B68012283F843202C
:1019F4007B68012283F844207B68012283F8452018
:101A04007B68012283F83D20002318460837BD4631
:101A140080BD000080B485B000AF78607B6893F827
:101A24003D30DBB2012B01D001233CE07B68022274
:101A340083F83D207B681B681E4A934218D07B685C
:101A44001B68B3F1804F13D07B681B681A4A93421A
:101A54000ED07B681B68194A934209D07B681B68C7
:101A6400174A934204D07B681B68164A934211D1EB
:101A74007B681B689B6803F00703FB60FB68062B0D
:101A840010D07B681B681A687B681B6842F00102EF
:101A94001A6007E07B681B681A687B681B6842F061
:101AA40001021A60002318461437BD465DF8047B12
:101AB400704700BF000001400004004000080040DF
:101AC400000C00400040014080B483B000AF786057
:101AD4007B681B681A6A41F211131340002B0FD163
:101AE4007B681B681A6A40F244431340002B07D1F9
:101AF4007B681B681A687B681B6822F001021A6005
:101B04007B68012283F83D20002318460C37BD462C
:101B14005DF8047B7047000080B485B000AF786046
:101B24007B6893F83D30DBB2012B01D0012344E004
:101B34007B68022283F83D207B681B68DA687B6837
:101B44001B6842F00102DA607B681B681E4A9342FC
:101B540018D07B681B68B3F1804F13D07B681B6877
:101B64001A4A93420ED07B681B68194A934209D0E3
:101B74007B681B68174A934204D07B681B68164A2B
:101B8400934211D17B681B689B6803F00703FB60D9
:101B9400FB68062B10D07B681B681A687B681B687F
:101BA40042F001021A6007E07B681B681A687B68D0
:101BB4001B6842F001021A60002318461437BD4620
:101BC4005DF8047B704700BF000001400004004042
:101BD40000080040000C00400040014080B582B085
:101BE40000AF78607B681B681B6903F00203022B5B
:101BF40022D17B681B68DB6803F00203022B1BD134
:101C04007B681B686FF002021A617B6801221A77F5
:101C14007B681B689B6903F00303002B03D078687F
:101C240000F0B5F905E0786800F0A7F9786800F0ED
:101C3400B8F97B6800221A777B681B681B6903F07C
:101C44000403042B22D17B681B68DB6803F00403C4
:101C5400042B1BD17B681B686FF004021A617B683C
:101C640002221A777B681B689B6903F44073002B7C
:101C740003D0786800F08BF905E0786800F07DF90E
:101C8400786800F08EF97B6800221A777B681B68FD
:101C94001B6903F00803082B22D17B681B68DB68EF
:101CA40003F00803082B1BD17B681B686FF0080244
:101CB4001A617B6804221A777B681B68DB6903F06E
:101CC4000303002B03D0786800F061F905E078681D
:101CD40000F053F9786800F064F97B6800221A7701
:101CE4007B681B681B6903F01003102B22D17B68EF
:101CF4001B68DB6803F01003102B1BD17B681B6887
:101D04006FF010021A617B6808221A777B681B68DF
:101D1400DB6903F44073002B03D0786800F037F9D3
:101D240005E0786800F029F9786800F03AF97B68F2
:101D340000221A777B681B681B6903F00103012BDF
:101D44000ED17B681B68DB6803F00103012B07D10C
:101D54007B681B686FF001021A617868FEF72EFD3C
:101D64007B681B681B6903F08003802B0ED17B68A2
:101D74001B68DB6803F08003802B07D17B681B683A
:101D84006FF080021A61786800F0B2FA7B681B6811
:101D94001B6903F04003402B0ED17B681B68DB6892
:101DA40003F04003402B07D17B681B686FF04002AF
:101DB4001A61786800F0FFF87B681B681B6903F000
:101DC4002003202B0ED17B681B68DB6803F0200303
:101DD400202B07D17B681B686FF020021A6178689A
:101DE40000F07CFA00BF0837BD4680BD80B584B0E2
:101DF40000AF786039600023FB737B6893F83C3054
:101E0400012B01D10223B4E07B68012283F83C203A
:101E14007B68022283F83D207B681B689B68BB605B
:101E2400BB6823F07703BB60BB6823F47F43BB60CC
:101E34007B681B68BA689A603B681B68B3F5005FEF
:101E44003ED0B3F5005F00F28780B3F5805F00F009
:101E54008680B3F5805F7FD8702B1AD0702B7BD827
:101E6400602B50D0602B77D8502B3CD0502B73D89C
:101E7400402B58D0402B6FD8302B64D0302B6BD8EC
:101E8400202B60D0202B67D8002B5CD0102B5AD08D
:101E940062E07B6818683B6899683B685A683B68ED
:101EA400DB6800F08DF97B681B689B68BB60BB68CE
:101EB40043F07703BB607B681B68BA689A604FE0A5
:101EC4007B6818683B6899683B685A683B68DB68BC
:101ED40000F076F97B681B689A687B681B6842F49B
:101EE40080429A603CE07B6818683B6859683B68AC
:101EF400DB681A4600F0EAF87B681B685021184634
:101F040000F043F92CE07B6818683B6859683B682B
:101F1400DB681A4600F009F97B681B6860211846E3
:101F240000F033F91CE07B6818683B6859683B682B
:101F3400DB681A4600F0CAF87B681B684021184623
:101F440000F023F90CE07B681A683B681B681946AB
:101F5400104600F01AF903E00123FB7300E000BF10
:101F64007B68012283F83D207B68002283F83C20B3
:101F7400FB7B18461037BD4680BD80B483B000AFEC
:101F8400786000BF0C37BD465DF8047B704780B4B1
:101F940083B000AF786000BF0C37BD465DF8047BAA
:101FA400704780B483B000AF786000BF0C37BD4683
:101FB4005DF8047B704780B483B000AF786000BFE5
:101FC4000C37BD465DF8047B7047000080B485B0D3
:101FD40000AF786039607B681B68FB607B68344ABB
:101FE40093420FD07B68B3F1804F0BD07B68314AAA
:101FF400934207D07B68304A934203D07B682F4AD0
:10200400934208D1FB6823F07003FB603B685B6874
:10201400FA681343FB607B68254A93421BD07B68B4
:10202400B3F1804F17D07B68224A934213D07B6868
:10203400214A93420FD07B68204A93420BD07B689D
:102044001F4A934207D07B681E4A934203D07B68A1
:102054001D4A934208D1FB6823F44073FB603B683C
:10206400DB68FA681343FB60FB6823F080023B687B
:102074005B691343FB607B68FA681A603B689A6883
:102084007B68DA623B681A687B689A627B68084AF4
:10209400934203D13B681A697B681A637B68012207
:1020A4005A6100BF1437BD465DF8047B704700BF1A
:1020B400000001400004004000080040000C004003
:1020C40000400140004401400048014080B487B012
:1020D40000AFF860B9607A60FB681B6A7B61FB68DB
:1020E4001B6A23F00102FB681A62FB689B693B616F
:1020F4003B6923F0F0033B617B681B013A6913439E
:102104003B617B6923F00A037B617A69BB681343F3
:102114007B61FB683A699A61FB687A691A6200BF5D
:102124001C37BD465DF8047B704780B487B000AFB0
:10213400F860B9607A60FB681B6A23F01002FB68E0
:102144001A62FB689B697B61FB681B6A3B617B6964
:1021540023F470437B617B681B037A6913437B61BF
:102164003B6923F0A0033B61BB681B013A6913433D
:102174003B61FB687A699A61FB683A691A6200BF3D
:102184001C37BD465DF8047B704780B485B000AF52
:10219400786039607B689B68FB60FB6823F07003A0
:1021A400FB603A68FB68134343F00703FB607B68FA
:1021B400FA689A6000BF1437BD465DF8047B704727
:1021C40080B487B000AFF860B9607A603B60FB68A8
:1021D4009B687B617B6923F47F437B613B681A02C4
:1021E4007B681A43BB6813437A6913437B61FB68BA
:1021F4007A699A6000BF1C37BD465DF8047B70475E
:1022040080B485B000AF786039607B6893F83C3067
:10221400012B01D1022350E07B68012283F83C208A
:102224007B68022283F83D207B681B685B68FB6047
:102234007B681B689B68BB60FB6823F07003FB60D2
:102244003B681B68FA681343FB607B681B68FA6889
:102254005A607B681B681C4A934218D07B681B68D1
:10226400B3F1804F13D07B681B68184A93420ED099
:102274007B681B68164A934209D07B681B68154A21
:10228400934204D07B681B68134A93420CD1BB6809
:1022940023F08003BB603B685B68BA681343BB6090
:1022A4007B681B68BA689A607B68012283F83D20CA
:1022B4007B68002283F83C20002318461437BD466F
:1022C4005DF8047B704700BF00000140000400403B
:1022D40000080040000C00400040014080B483B07E
:1022E40000AF786000BF0C37BD465DF8047B7047D3
:1022F40080B483B000AF786000BF0C37BD465DF892
:10230400047B704770B50D4D0D4C641BA410002662
:10231400A64209D10B4D0C4C00F020F8641BA4100C
:102324000026A64205D170BD55F8043B98470136F6
:10233400EEE755F8043B98470136F2E7902300088E
:1023440090230008902300089423000802440346C5
:10235400934200D1704703F8011BF9E7F8B500BFB9
:10236400F8BC08BC9E467047F8B500BFF8BC08BC72
:042374009E467047CA
:10237800000000000000000001020304060708092D
:082388007CDEFF7F0100000074
:04239000B901000887
:0423940095010008A7
:102398000008000000040000000200000001000026
:0C23A8000024F400100000000100000000
:04000005080009BD29
:00000001FF
